{"abi":[{"type":"function","name":"builderCount","inputs":[],"outputs":[{"name":"","type":"uint256","internalType":"uint256"}],"stateMutability":"view"},{"type":"function","name":"getActiveBuilders","inputs":[],"outputs":[{"name":"","type":"tuple[]","internalType":"struct BuilderRegistry.Builder[]","components":[{"name":"fid","type":"uint256","internalType":"uint256"},{"name":"username","type":"string","internalType":"string"},{"name":"bio","type":"string","internalType":"string"},{"name":"skills","type":"string[]","internalType":"string[]"},{"name":"wallet","type":"address","internalType":"address"},{"name":"registeredAt","type":"uint256","internalType":"uint256"},{"name":"active","type":"bool","internalType":"bool"}]}],"stateMutability":"view"},{"type":"function","name":"getAllBuilders","inputs":[],"outputs":[{"name":"","type":"tuple[]","internalType":"struct BuilderRegistry.Builder[]","components":[{"name":"fid","type":"uint256","internalType":"uint256"},{"name":"username","type":"string","internalType":"string"},{"name":"bio","type":"string","internalType":"string"},{"name":"skills","type":"string[]","internalType":"string[]"},{"name":"wallet","type":"address","internalType":"address"},{"name":"registeredAt","type":"uint256","internalType":"uint256"},{"name":"active","type":"bool","internalType":"bool"}]}],"stateMutability":"view"},{"type":"function","name":"getBuilder","inputs":[{"name":"fid","type":"uint256","internalType":"uint256"}],"outputs":[{"name":"","type":"tuple","internalType":"struct BuilderRegistry.Builder","components":[{"name":"fid","type":"uint256","internalType":"uint256"},{"name":"username","type":"string","internalType":"string"},{"name":"bio","type":"string","internalType":"string"},{"name":"skills","type":"string[]","internalType":"string[]"},{"name":"wallet","type":"address","internalType":"address"},{"name":"registeredAt","type":"uint256","internalType":"uint256"},{"name":"active","type":"bool","internalType":"bool"}]}],"stateMutability":"view"},{"type":"function","name":"getProject","inputs":[{"name":"projectId","type":"uint256","internalType":"uint256"}],"outputs":[{"name":"","type":"tuple","internalType":"struct BuilderRegistry.Project","components":[{"name":"id","type":"uint256","internalType":"uint256"},{"name":"ownerFid","type":"uint256","internalType":"uint256"},{"name":"title","type":"string","internalType":"string"},{"name":"metadataUri","type":"string","internalType":"string"},{"name":"publishedAt","type":"uint256","internalType":"uint256"}]}],"stateMutability":"view"},{"type":"function","name":"getProjectsByBuilder","inputs":[{"name":"fid","type":"uint256","internalType":"uint256"}],"outputs":[{"name":"","type":"tuple[]","internalType":"struct BuilderRegistry.Project[]","components":[{"name":"id","type":"uint256","internalType":"uint256"},{"name":"ownerFid","type":"uint256","internalType":"uint256"},{"name":"title","type":"string","internalType":"string"},{"name":"metadataUri","type":"string","internalType":"string"},{"name":"publishedAt","type":"uint256","internalType":"uint256"}]}],"stateMutability":"view"},{"type":"function","name":"isRegistered","inputs":[{"name":"fid","type":"uint256","internalType":"uint256"}],"outputs":[{"name":"","type":"bool","internalType":"bool"}],"stateMutability":"view"},{"type":"function","name":"publishProject","inputs":[{"name":"ownerFid","type":"uint256","internalType":"uint256"},{"name":"title","type":"string","internalType":"string"},{"name":"metadataUri","type":"string","internalType":"string"}],"outputs":[{"name":"projectId","type":"uint256","internalType":"uint256"}],"stateMutability":"nonpayable"},{"type":"function","name":"register","inputs":[{"name":"fid","type":"uint256","internalType":"uint256"},{"name":"username","type":"string","internalType":"string"},{"name":"bio","type":"string","internalType":"string"},{"name":"skills","type":"string[]","internalType":"string[]"},{"name":"wallet","type":"address","internalType":"address"}],"outputs":[],"stateMutability":"nonpayable"},{"type":"function","name":"update","inputs":[{"name":"fid","type":"uint256","internalType":"uint256"},{"name":"bio","type":"string","internalType":"string"},{"name":"skills","type":"string[]","internalType":"string[]"}],"outputs":[],"stateMutability":"nonpayable"},{"type":"event","name":"BuilderRegistered","inputs":[{"name":"fid","type":"uint256","indexed":true,"internalType":"uint256"},{"name":"username","type":"string","indexed":false,"internalType":"string"},{"name":"wallet","type":"address","indexed":false,"internalType":"address"}],"anonymous":false},{"type":"event","name":"BuilderUpdated","inputs":[{"name":"fid","type":"uint256","indexed":true,"internalType":"uint256"}],"anonymous":false},{"type":"event","name":"ProjectPublished","inputs":[{"name":"projectId","type":"uint256","indexed":true,"internalType":"uint256"},{"name":"ownerFid","type":"uint256","indexed":true,"internalType":"uint256"},{"name":"title","type":"string","indexed":false,"internalType":"string"}],"anonymous":false},{"type":"error","name":"AlreadyRegistered","inputs":[]},{"type":"error","name":"InvalidFid","inputs":[]},{"type":"error","name":"NotRegistered","inputs":[]},{"type":"error","name":"Unauthorized","inputs":[]}],"bytecode":{"object":"0x6080604052348015600e575f5ffd5b50612b098061001c5f395ff3fe608060405234801561000f575f5ffd5b506004361061009c575f3560e01c80639bc00c53116100645780639bc00c5314610158578063a597db1f14610174578063ce6344ce14610192578063e7b7a361146101c2578063f0f3f2c8146101f25761009c565b806323c49fcd146100a05780634f9992a8146100be578063579a6988146100ee5780637f4890801461011e578063927d95991461013a575b5f5ffd5b6100a8610222565b6040516100b59190611a51565b60405180910390f35b6100d860048036038101906100d39190611aac565b610572565b6040516100e59190611c0c565b60405180910390f35b61010860048036038101906101039190611aac565b6107e4565b6040516101159190611c3b565b60405180910390f35b61013860048036038101906101339190611ee5565b610803565b005b610142610a91565b60405161014f9190611fc7565b60405180910390f35b610172600480360381019061016d9190611fe0565b610a9d565b005b61017c610bf7565b6040516101899190611a51565b60405180910390f35b6101ac60048036038101906101a79190611aac565b611004565b6040516101b99190612114565b60405180910390f35b6101dc60048036038101906101d79190612134565b6112f0565b6040516101e99190611fc7565b60405180910390f35b61020c60048036038101906102079190611aac565b61156e565b604051610219919061223f565b60405180910390f35b60605f60018054905090505f8167ffffffffffffffff81111561024857610247611cb5565b5b60405190808252806020026020018201604052801561028157816020015b61026e6116d6565b8152602001906001900390816102665790505b5090505f5f90505b82811015610569575f5f600183815481106102a7576102a661225f565b5b905f5260205f20015481526020019081526020015f206040518060e00160405290815f82015481526020016001820180546102e1906122b9565b80601f016020809104026020016040519081016040528092919081815260200182805461030d906122b9565b80156103585780601f1061032f57610100808354040283529160200191610358565b820191905f5260205f20905b81548152906001019060200180831161033b57829003601f168201915b50505050508152602001600282018054610371906122b9565b80601f016020809104026020016040519081016040528092919081815260200182805461039d906122b9565b80156103e85780601f106103bf576101008083540402835291602001916103e8565b820191905f5260205f20905b8154815290600101906020018083116103cb57829003601f168201915b5050505050815260200160038201805480602002602001604051908101604052809291908181526020015f905b828210156104bd578382905f5260205f20018054610432906122b9565b80601f016020809104026020016040519081016040528092919081815260200182805461045e906122b9565b80156104a95780601f10610480576101008083540402835291602001916104a9565b820191905f5260205f20905b81548152906001019060200180831161048c57829003601f168201915b505050505081526020019060010190610415565b505050508152602001600482015f9054906101000a900473ffffffffffffffffffffffffffffffffffffffff1673ffffffffffffffffffffffffffffffffffffffff1673ffffffffffffffffffffffffffffffffffffffff16815260200160058201548152602001600682015f9054906101000a900460ff1615151515815250508282815181106105515761055061225f565b5b60200260200101819052508080600101915050610289565b50809250505090565b60605f60045f8481526020019081526020015f208054806020026020016040519081016040528092919081815260200182805480156105ce57602002820191905f5260205f20905b8154815260200190600101908083116105ba575b505050505090505f815167ffffffffffffffff8111156105f1576105f0611cb5565b5b60405190808252806020026020018201604052801561062a57816020015b610617611727565b81526020019060019003908161060f5790505b5090505f5f90505b82518110156107d95760025f8483815181106106515761065061225f565b5b602002602001015181526020019081526020015f206040518060a00160405290815f820154815260200160018201548152602001600282018054610694906122b9565b80601f01602080910402602001604051908101604052809291908181526020018280546106c0906122b9565b801561070b5780601f106106e25761010080835404028352916020019161070b565b820191905f5260205f20905b8154815290600101906020018083116106ee57829003601f168201915b50505050508152602001600382018054610724906122b9565b80601f0160208091040260200160405190810160405280929190818152602001828054610750906122b9565b801561079b5780601f106107725761010080835404028352916020019161079b565b820191905f5260205f20905b81548152906001019060200180831161077e57829003601f168201915b505050505081526020016004820154815250508282815181106107c1576107c061225f565b5b60200260200101819052508080600101915050610632565b508092505050919050565b5f5f5f5f8481526020019081526020015f206005015414159050919050565b5f870361083c576040517f910a89c900000000000000000000000000000000000000000000000000000000815260040160405180910390fd5b5f5f5f8981526020019081526020015f206005015414610888576040517f3a81d6fc00000000000000000000000000000000000000000000000000000000815260040160405180910390fd5b6040518060e0016040528088815260200187878080601f0160208091040260200160405190810160405280939291908181526020018383808284375f81840152601f19601f82011690508083019250505050505050815260200185858080601f0160208091040260200160405190810160405280939291908181526020018383808284375f81840152601f19601f8201169050808301925050505050505081526020018381526020018273ffffffffffffffffffffffffffffffffffffffff168152602001428152602001600115158152505f5f8981526020019081526020015f205f820151815f01556020820151816001019081610987919061249a565b50604082015181600201908161099d919061249a565b5060608201518160030190816109b391906128b6565b506080820151816004015f6101000a81548173ffffffffffffffffffffffffffffffffffffffff021916908373ffffffffffffffffffffffffffffffffffffffff16021790555060a0820151816005015560c0820151816006015f6101000a81548160ff021916908315150217905550905050600187908060018154018082558091505060019003905f5260205f20015f9091909190915055867ff2a35a6336a1121ffaa5f011d2e8d9527e0457e46f4216df96c93cfa2e7ea880878784604051610a8093929190612963565b60405180910390a250505050505050565b5f600180549050905090565b5f5f5f8681526020019081526020015f206005015403610ae9576040517faba4733900000000000000000000000000000000000000000000000000000000815260040160405180910390fd5b3373ffffffffffffffffffffffffffffffffffffffff165f5f8681526020019081526020015f206004015f9054906101000a900473ffffffffffffffffffffffffffffffffffffffff1673ffffffffffffffffffffffffffffffffffffffff1614610b80576040517f82b4290000000000000000000000000000000000000000000000000000000000815260040160405180910390fd5b82825f5f8781526020019081526020015f206002019182610ba292919061299d565b50805f5f8681526020019081526020015f206003019081610bc391906128b6565b50837f9c8c1ee19ead0e38324dbe0887475b8cfdcf6ddeff4c1587df17a7b7fc2eda7060405160405180910390a250505050565b60605f60018054905090505f5f5f90505b82811015610c6d575f5f60018381548110610c2657610c2561225f565b5b905f5260205f20015481526020019081526020015f206006015f9054906101000a900460ff1615610c60578180610c5c90612a6a565b9250505b8080600101915050610c08565b505f8167ffffffffffffffff811115610c8957610c88611cb5565b5b604051908082528060200260200182016040528015610cc257816020015b610caf6116d6565b815260200190600190039081610ca75790505b5090505f5f5f90505b84811015610ff9575f5f60018381548110610ce957610ce861225f565b5b905f5260205f20015481526020019081526020015f206006015f9054906101000a900460ff1615610fec575f5f60018381548110610d2a57610d2961225f565b5b905f5260205f20015481526020019081526020015f206040518060e00160405290815f8201548152602001600182018054610d64906122b9565b80601f0160208091040260200160405190810160405280929190818152602001828054610d90906122b9565b8015610ddb5780601f10610db257610100808354040283529160200191610ddb565b820191905f5260205f20905b815481529060010190602001808311610dbe57829003601f168201915b50505050508152602001600282018054610df4906122b9565b80601f0160208091040260200160405190810160405280929190818152602001828054610e20906122b9565b8015610e6b5780601f10610e4257610100808354040283529160200191610e6b565b820191905f5260205f20905b815481529060010190602001808311610e4e57829003601f168201915b5050505050815260200160038201805480602002602001604051908101604052809291908181526020015f905b82821015610f40578382905f5260205f20018054610eb5906122b9565b80601f0160208091040260200160405190810160405280929190818152602001828054610ee1906122b9565b8015610f2c5780601f10610f0357610100808354040283529160200191610f2c565b820191905f5260205f20905b815481529060010190602001808311610f0f57829003601f168201915b505050505081526020019060010190610e98565b505050508152602001600482015f9054906101000a900473ffffffffffffffffffffffffffffffffffffffff1673ffffffffffffffffffffffffffffffffffffffff1673ffffffffffffffffffffffffffffffffffffffff16815260200160058201548152602001600682015f9054906101000a900460ff161515151581525050838380610fcd90612a6a565b945081518110610fe057610fdf61225f565b5b60200260200101819052505b8080600101915050610ccb565b508194505050505090565b61100c6116d6565b5f5f5f8481526020019081526020015f206005015403611058576040517faba4733900000000000000000000000000000000000000000000000000000000815260040160405180910390fd5b5f5f8381526020019081526020015f206040518060e00160405290815f820154815260200160018201805461108c906122b9565b80601f01602080910402602001604051908101604052809291908181526020018280546110b8906122b9565b80156111035780601f106110da57610100808354040283529160200191611103565b820191905f5260205f20905b8154815290600101906020018083116110e657829003601f168201915b5050505050815260200160028201805461111c906122b9565b80601f0160208091040260200160405190810160405280929190818152602001828054611148906122b9565b80156111935780601f1061116a57610100808354040283529160200191611193565b820191905f5260205f20905b81548152906001019060200180831161117657829003601f168201915b5050505050815260200160038201805480602002602001604051908101604052809291908181526020015f905b82821015611268578382905f5260205f200180546111dd906122b9565b80601f0160208091040260200160405190810160405280929190818152602001828054611209906122b9565b80156112545780601f1061122b57610100808354040283529160200191611254565b820191905f5260205f20905b81548152906001019060200180831161123757829003601f168201915b5050505050815260200190600101906111c0565b505050508152602001600482015f9054906101000a900473ffffffffffffffffffffffffffffffffffffffff1673ffffffffffffffffffffffffffffffffffffffff1673ffffffffffffffffffffffffffffffffffffffff16815260200160058201548152602001600682015f9054906101000a900460ff1615151515815250509050919050565b5f5f5f5f8881526020019081526020015f20600501540361133d576040517faba4733900000000000000000000000000000000000000000000000000000000815260040160405180910390fd5b3373ffffffffffffffffffffffffffffffffffffffff165f5f8881526020019081526020015f206004015f9054906101000a900473ffffffffffffffffffffffffffffffffffffffff1673ffffffffffffffffffffffffffffffffffffffff16146113d4576040517f82b4290000000000000000000000000000000000000000000000000000000000815260040160405180910390fd5b60035f8154809291906113e690612a6a565b9190505590506040518060a0016040528082815260200187815260200186868080601f0160208091040260200160405190810160405280939291908181526020018383808284375f81840152601f19601f82011690508083019250505050505050815260200184848080601f0160208091040260200160405190810160405280939291908181526020018383808284375f81840152601f19601f8201169050808301925050505050505081526020014281525060025f8381526020019081526020015f205f820151815f01556020820151816001015560408201518160020190816114d1919061249a565b5060608201518160030190816114e7919061249a565b506080820151816004015590505060045f8781526020019081526020015f2081908060018154018082558091505060019003905f5260205f20015f909190919091505585817f2ff88eb9282687bc31799a2dbd272e051e5b84eccf5c80bd5536c034ecec4947878760405161155d929190612ab1565b60405180910390a395945050505050565b611576611727565b60025f8381526020019081526020015f206040518060a00160405290815f8201548152602001600182015481526020016002820180546115b5906122b9565b80601f01602080910402602001604051908101604052809291908181526020018280546115e1906122b9565b801561162c5780601f106116035761010080835404028352916020019161162c565b820191905f5260205f20905b81548152906001019060200180831161160f57829003601f168201915b50505050508152602001600382018054611645906122b9565b80601f0160208091040260200160405190810160405280929190818152602001828054611671906122b9565b80156116bc5780601f10611693576101008083540402835291602001916116bc565b820191905f5260205f20905b81548152906001019060200180831161169f57829003601f168201915b505050505081526020016004820154815250509050919050565b6040518060e001604052805f81526020016060815260200160608152602001606081526020015f73ffffffffffffffffffffffffffffffffffffffff1681526020015f81526020015f151581525090565b6040518060a001604052805f81526020015f815260200160608152602001606081526020015f81525090565b5f81519050919050565b5f82825260208201905092915050565b5f819050602082019050919050565b5f819050919050565b61178e8161177c565b82525050565b5f81519050919050565b5f82825260208201905092915050565b8281835e5f83830152505050565b5f601f19601f8301169050919050565b5f6117d682611794565b6117e0818561179e565b93506117f08185602086016117ae565b6117f9816117bc565b840191505092915050565b5f81519050919050565b5f82825260208201905092915050565b5f819050602082019050919050565b5f61183883836117cc565b905092915050565b5f602082019050919050565b5f61185682611804565b611860818561180e565b9350836020820285016118728561181e565b805f5b858110156118ad578484038952815161188e858261182d565b945061189983611840565b925060208a01995050600181019050611875565b50829750879550505050505092915050565b5f73ffffffffffffffffffffffffffffffffffffffff82169050919050565b5f6118e8826118bf565b9050919050565b6118f8816118de565b82525050565b5f8115159050919050565b611912816118fe565b82525050565b5f60e083015f83015161192d5f860182611785565b506020830151848203602086015261194582826117cc565b9150506040830151848203604086015261195f82826117cc565b91505060608301518482036060860152611979828261184c565b915050608083015161198e60808601826118ef565b5060a08301516119a160a0860182611785565b5060c08301516119b460c0860182611909565b508091505092915050565b5f6119ca8383611918565b905092915050565b5f602082019050919050565b5f6119e882611753565b6119f2818561175d565b935083602082028501611a048561176d565b805f5b85811015611a3f5784840389528151611a2085826119bf565b9450611a2b836119d2565b925060208a01995050600181019050611a07565b50829750879550505050505092915050565b5f6020820190508181035f830152611a6981846119de565b905092915050565b5f604051905090565b5f5ffd5b5f5ffd5b611a8b8161177c565b8114611a95575f5ffd5b50565b5f81359050611aa681611a82565b92915050565b5f60208284031215611ac157611ac0611a7a565b5b5f611ace84828501611a98565b91505092915050565b5f81519050919050565b5f82825260208201905092915050565b5f819050602082019050919050565b5f60a083015f830151611b155f860182611785565b506020830151611b286020860182611785565b5060408301518482036040860152611b4082826117cc565b91505060608301518482036060860152611b5a82826117cc565b9150506080830151611b6f6080860182611785565b508091505092915050565b5f611b858383611b00565b905092915050565b5f602082019050919050565b5f611ba382611ad7565b611bad8185611ae1565b935083602082028501611bbf85611af1565b805f5b85811015611bfa5784840389528151611bdb8582611b7a565b9450611be683611b8d565b925060208a01995050600181019050611bc2565b50829750879550505050505092915050565b5f6020820190508181035f830152611c248184611b99565b905092915050565b611c35816118fe565b82525050565b5f602082019050611c4e5f830184611c2c565b92915050565b5f5ffd5b5f5ffd5b5f5ffd5b5f5f83601f840112611c7557611c74611c54565b5b8235905067ffffffffffffffff811115611c9257611c91611c58565b5b602083019150836001820283011115611cae57611cad611c5c565b5b9250929050565b7f4e487b71000000000000000000000000000000000000000000000000000000005f52604160045260245ffd5b611ceb826117bc565b810181811067ffffffffffffffff82111715611d0a57611d09611cb5565b5b80604052505050565b5f611d1c611a71565b9050611d288282611ce2565b919050565b5f67ffffffffffffffff821115611d4757611d46611cb5565b5b602082029050602081019050919050565b5f5ffd5b5f67ffffffffffffffff821115611d7657611d75611cb5565b5b611d7f826117bc565b9050602081019050919050565b828183375f83830152505050565b5f611dac611da784611d5c565b611d13565b905082815260208101848484011115611dc857611dc7611d58565b5b611dd3848285611d8c565b509392505050565b5f82601f830112611def57611dee611c54565b5b8135611dff848260208601611d9a565b91505092915050565b5f611e1a611e1584611d2d565b611d13565b90508083825260208201905060208402830185811115611e3d57611e3c611c5c565b5b835b81811015611e8457803567ffffffffffffffff811115611e6257611e61611c54565b5b808601611e6f8982611ddb565b85526020850194505050602081019050611e3f565b5050509392505050565b5f82601f830112611ea257611ea1611c54565b5b8135611eb2848260208601611e08565b91505092915050565b611ec4816118de565b8114611ece575f5ffd5b50565b5f81359050611edf81611ebb565b92915050565b5f5f5f5f5f5f5f60a0888a031215611f0057611eff611a7a565b5b5f611f0d8a828b01611a98565b975050602088013567ffffffffffffffff811115611f2e57611f2d611a7e565b5b611f3a8a828b01611c60565b9650965050604088013567ffffffffffffffff811115611f5d57611f5c611a7e565b5b611f698a828b01611c60565b9450945050606088013567ffffffffffffffff811115611f8c57611f8b611a7e565b5b611f988a828b01611e8e565b9250506080611fa98a828b01611ed1565b91505092959891949750929550565b611fc18161177c565b82525050565b5f602082019050611fda5f830184611fb8565b92915050565b5f5f5f5f60608587031215611ff857611ff7611a7a565b5b5f61200587828801611a98565b945050602085013567ffffffffffffffff81111561202657612025611a7e565b5b61203287828801611c60565b9350935050604085013567ffffffffffffffff81111561205557612054611a7e565b5b61206187828801611e8e565b91505092959194509250565b5f60e083015f8301516120825f860182611785565b506020830151848203602086015261209a82826117cc565b915050604083015184820360408601526120b482826117cc565b915050606083015184820360608601526120ce828261184c565b91505060808301516120e360808601826118ef565b5060a08301516120f660a0860182611785565b5060c083015161210960c0860182611909565b508091505092915050565b5f6020820190508181035f83015261212c818461206d565b905092915050565b5f5f5f5f5f6060868803121561214d5761214c611a7a565b5b5f61215a88828901611a98565b955050602086013567ffffffffffffffff81111561217b5761217a611a7e565b5b61218788828901611c60565b9450945050604086013567ffffffffffffffff8111156121aa576121a9611a7e565b5b6121b688828901611c60565b92509250509295509295909350565b5f60a083015f8301516121da5f860182611785565b5060208301516121ed6020860182611785565b506040830151848203604086015261220582826117cc565b9150506060830151848203606086015261221f82826117cc565b91505060808301516122346080860182611785565b508091505092915050565b5f6020820190508181035f83015261225781846121c5565b905092915050565b7f4e487b71000000000000000000000000000000000000000000000000000000005f52603260045260245ffd5b7f4e487b71000000000000000000000000000000000000000000000000000000005f52602260045260245ffd5b5f60028204905060018216806122d057607f821691505b6020821081036122e3576122e261228c565b5b50919050565b5f819050815f5260205f209050919050565b5f6020601f8301049050919050565b5f82821b905092915050565b5f600883026123457fffffffffffffffffffffffffffffffffffffffffffffffffffffffffffffffff8261230a565b61234f868361230a565b95508019841693508086168417925050509392505050565b5f819050919050565b5f61238a6123856123808461177c565b612367565b61177c565b9050919050565b5f819050919050565b6123a383612370565b6123b76123af82612391565b848454612316565b825550505050565b5f5f905090565b6123ce6123bf565b6123d981848461239a565b505050565b5f5b828110156123ff576123f45f8284016123c6565b6001810190506123e0565b505050565b601f82111561245257828211156124515761241e816122e9565b612427836122fb565b612430856122fb565b602086101561243d575f90505b80830161244c828403826123de565b505050505b5b505050565b5f82821c905092915050565b5f6124725f1984600802612457565b1980831691505092915050565b5f61248a8383612463565b9150826002028217905092915050565b6124a382611794565b67ffffffffffffffff8111156124bc576124bb611cb5565b5b6124c682546122b9565b6124d1828285612404565b5f60209050601f831160018114612502575f84156124f0578287015190505b6124fa858261247f565b865550612561565b601f198416612510866122e9565b5f5b8281101561253757848901518255600182019150602085019450602081019050612512565b868310156125545784890151612550601f891682612463565b8355505b6001600288020188555050505b505050505050565b5f81549050919050565b7f4e487b71000000000000000000000000000000000000000000000000000000005f52601160045260245ffd5b5f8190506001806001038301049050919050565b5f819050815f5260205f209050919050565b6125f67fffffffffffffffffffffffffffffffffffffffffffffffffffffffffffffffff83602003600802612457565b815481168255505050565b61260a816122e9565b61261583825461247f565b8083555f825550505050565b602084105f811461267c57601f84116001811461264957612642868561247f565b8355612676565b612652836122e9565b61266a6001612660886122fb565b03600183016123de565b6126748785612601565b505b506126d6565b612685856122fb565b61268e856122fb565b612697846122e9565b828101601f891680156126b2576126b181600184036125c6565b5b848411156126c7576126c6858503836123de565b5b60018a60020217875550505050505b5050505050565b680100000000000000008411156126f7576126f6611cb5565b5b602083105f811461274057602085105f811461271e57612717868561247f565b835561273a565b8360ff191693508361272f846122e9565b556001866002020183555b5061274a565b6001856002020182555b5050505050565b805461275c816122b9565b8084111561277157612770848284866126dd565b5b808410156127865761278584828486612621565b5b50505050565b828110156127ab576127a05f8284016123c6565b60018101905061278c565b505050565b6127ba5f82612751565b50565b7f4e487b71000000000000000000000000000000000000000000000000000000005f525f60045260245ffd5b5f82146127f9576127f86127bd565b5b612802816127b0565b5050565b5f5b828110156128275761281c5f8284016127e9565b600181019050612808565b505050565b818310156128635761283d826125a0565b612846846125a0565b61284f836125b4565b81810161285e83850382612806565b505050505b505050565b6801000000000000000082111561288257612881611cb5565b5b61288b81612569565b82825561289983828461282c565b505050565b5f81519050919050565b6128b2828261249a565b5050565b6128bf82611804565b6128c98183612868565b6128d28361181e565b6128db836125b4565b5f5b83811015612910576128ee8361289e565b6128f881846128a8565b602084019350600183019250506001810190506128dd565b505050505050565b5f82825260208201905092915050565b5f6129338385612918565b9350612940838584611d8c565b612949836117bc565b840190509392505050565b61295d816118de565b82525050565b5f6040820190508181035f83015261297c818587612928565b905061298b6020830184612954565b949350505050565b5f82905092915050565b6129a78383612993565b67ffffffffffffffff8111156129c0576129bf611cb5565b5b6129ca82546122b9565b6129d5828285612404565b5f601f831160018114612a02575f84156129f0578287013590505b6129fa858261247f565b865550612a61565b601f198416612a10866122e9565b5f5b82811015612a3757848901358255600182019150602085019450602081019050612a12565b86831015612a545784890135612a50601f891682612463565b8355505b6001600288020188555050505b50505050505050565b5f612a748261177c565b91507fffffffffffffffffffffffffffffffffffffffffffffffffffffffffffffffff8203612aa657612aa5612573565b5b600182019050919050565b5f6020820190508181035f830152612aca818486612928565b9050939250505056fea264697066735822122036299dc60e15ef9d96699c3901e8bf3cb0a6ecb0ceb7dccb68fbcee302188fd764736f6c63430008210033","linkReferences":{}},"methodIdentifiers":{"builderCount()":"927d9599","getActiveBuilders()":"a597db1f","getAllBuilders()":"23c49fcd","getBuilder(uint256)":"ce6344ce","getProject(uint256)":"f0f3f2c8","getProjectsByBuilder(uint256)":"4f9992a8","isRegistered(uint256)":"579a6988","publishProject(uint256,string,string)":"e7b7a361","register(uint256,string,string,string[],address)":"7f489080","update(uint256,string,string[])":"9bc00c53"},"id":19}